:100000000C9463000C948B000C948B000C941205E0
:100010000C9412050C9412050C948B000C948B001C
:100020000C948B000C948B000C948B000C948B0024
:100030000C948B000C948B000C948B000C948B0014
:100040000C94C8040C948B000C9496040C947004CB
:100050000C948B000C948B000C948B000C948B00F4
:100060000C948B000C948B000000000024002700EF
:100070002A0000000008000201000003040700003D
:1000800000000000000000000000230026002900FE
:1000900000000000250028002B00040404040404D0
:1000A0000404020202020202030303030303010227
:1000B00004081020408001020408102001020408F6
:1000C00010208A05480811241FBECFEFD8E0DEBFFC
:1000D000CDBF11E0A0E0B1E0EEE3F1E102C0059098
:1000E0000D92A837B107D9F722E0A8E7B1E001C027
:1000F0001D92AB3AB207E1F710E0C2E6D0E004C0CF
:100100002197FE010E948C08C136D107C9F70E94D1
:1001100053060C9492080C940000E2E6F2E083810E
:100120009481890F9927991F2581820F911D26811E
:10013000280F392F311D8781280F311D8085820FAF
:10014000932F911D919581959109918782870895AB
:10015000AF92BF92CF92DF92EF92FF920F931F93D5
:10016000CF93DF936C017B018B01040F151FEB0113
:100170005E01AE18BF08C017D10759F06991D601CA
:10018000ED91FC910190F081E02DC6010995892B3C
:1001900079F7C501DF91CF911F910F91FF90EF90FB
:1001A000DF90CF90BF90AF900895FC01538D448DA8
:1001B000252F30E0842F90E0821B930B541710F012
:1001C000CF96089501970895FC01918D828D98171F
:1001D00061F0A28DAE0FBF2FB11D5D968C91928DF7
:1001E0009F5F9F73928F90E008958FEF9FEF089528
:1001F000FC01918D828D981731F0828DE80FF11DF1
:10020000858D90E008958FEF9FEF0895FC01918D0B
:10021000228D892F90E0805C9F4F821B91098F7304
:100220009927089585EC91E00E94060121E0892B31
:1002300009F420E0822F089580E090E0892B29F0D6
:100240000E94120181110C9400000895FC01A48DFC
:10025000A80FB92FB11DA35ABF4F2C91848D90E0E8
:1002600001968F739927848FA689B7892C93A089CB
:10027000B1898C91837080648C93938D848D981355
:1002800006C00288F389E02D80818F7D80830895E8
:10029000EF92FF920F931F93CF93DF93EC0181E0D6
:1002A000888F9B8D8C8D98131AC0E889F98980817D
:1002B00085FF15C09FB7F894EE89FF896083E889B0
:1002C000F98980818370806480839FBF81E090E0A2
:1002D000DF91CF911F910F91FF90EF900895F62E2F
:1002E0000B8D10E00F5F1F4F0F731127E02E8C8DC9
:1002F0008E110CC00FB607FCFACFE889F98980810E
:1003000085FFF5CFCE010E942601F1CFEB8DEC0FDA
:10031000FD2FF11DE35AFF4FF0829FB7F8940B8F2A
:10032000EA89FB8980818062CFCF60E285EC91E031
:100330000C944801CF93DF93EC01888D8823B9F0AA
:10034000AA89BB89E889F9898C9185FD03C08081E0
:1003500086FD0DC00FB607FCF7CF8C9185FFF2CF5D
:10036000808185FFEDCFCE010E942601E9CFDF918C
:10037000CF910895833081F028F4813099F0823054
:10038000A9F008958730A9F08830C9F08430B1F41D
:10039000809180008F7D03C0809180008F77809353
:1003A0008000089584B58F7784BD089584B58F7DCE
:1003B000FBCF8091B0008F778093B000089580913B
:1003C000B0008F7DF9CFCF93DF93282F30E0F90174
:1003D000EE58FF4F8491F901E255FF4FD491F90196
:1003E000E656FF4FC491CC23A1F081110E94BA01BF
:1003F000EC2FF0E0EE0FFF1FEA57FF4FA591B491ED
:10040000EC91ED2381E090E009F480E0DF91CF9161
:10041000089580E090E0FACF1F93CF93DF93282FC9
:1004200030E0F901EE58FF4F8491F901E255FF4F9A
:10043000D491F901E656FF4FC491CC23A9F0162FB1
:1004400081110E94BA01EC2FF0E0EE0FFF1FE05780
:10045000FF4FA591B4918FB7F894EC91111108C09A
:10046000D095DE23DC938FBFDF91CF911F9108954C
:10047000DE2BF8CFCF93DF9390E0FC01E255FF4FE6
:10048000249186569F4FFC0184918823D1F090E0FF
:10049000880F991FFC01E859FF4FA591B491FC0109
:1004A000E057FF4FC591D49161110EC09FB7F894EA
:1004B0008C91E22FE0958E238C932881E223E883B0
:1004C0009FBFDF91CF9108958FB7F894EC91E22B05
:1004D000EC938FBFF6CF2091BB013091BC01281760
:1004E000390771F49091B9018091BA01981741F0E0
:1004F000E091B901F0E0E858FE4F808190E0089566
:100500008FEF9FEF08950895EF92FF920F931F933F
:10051000CF93DF93DC015C96ED90FC905D97E11446
:10052000F10479F481E090E013969C938E931297F6
:1005300090E080E0DF91CF911F910F91FF90EF90BD
:1005400008955196ED91FC91529750968C91509749
:10055000982F90950FB75E962C915E97122F127080
:1005600021FD6095F8942081112319F1282B208317
:10057000E7012197F1F728E0462F50E0308160FF36
:100580001AC0382B3083E7012197F1F7BA0175952E
:100590006795215089F7112381F080818923808319
:1005A0000FBF5C968D919C910197F1F781E090E0EF
:1005B000C1CF2923DCCF3923E5CF9081892BEFCF21
:1005C0002091BB013091BC012817390771F480914B
:1005D000BA012091B90190E0805C9F4F821B910984
:1005E00060E470E00E946408089590E080E008955F
:1005F0002091BB013091BC0128173907B9F49091C3
:10060000B9018091BA01981789F0E091B901F0E041
:10061000E858FE4F80812091B90130E02F5F3F4FB5
:100620002F7333272093B90190E008958FEF9FEF48
:10063000089590E080E00895FC0101900020E9F722
:100640003197AF01481B590BBC0185EC91E00C942C
:10065000A8000F931F93CF93DF93CDB7DEB7A19779
:100660000FB6F894DEBF0FBECDBF482F50E070E04C
:1006700060E019A2CE0181968A019B010F701127BB
:100680002227332724E076956795579547952A9535
:10069000D1F70A30C4F4005DFC010293CF0141158B
:1006A00051056105710541F7EF2B79F00E941C039C
:1006B000A1960FB6F894DEBF0FBECDBFDF91CF91EC
:1006C0001F910F910895095CE7CF90E080E0F0CF93
:1006D000CF93DF930E941C03EC0184E291E00E941F
:1006E0001C038C0F9D1FDF91CF910895AF92BF9295
:1006F000CF92DF92EF92FF920F931F93CF93DF93EE
:100700008091620290916302DC01ED91FC91019075
:10071000F081E02D609164020995809162029091D0
:100720006302DC01ED91FC910190F081E02D60917C
:10073000650209958091620290916302DC01ED915E
:10074000FC910190F081E02D609166020995809105
:10075000620290916302DC01ED91FC910190F081C5
:10076000E02D609167020995809162029091630289
:10077000DC01ED91FC910190F081E02D6091680227
:1007800009958091620290916302DC01ED91FC91E8
:100790000190F081E02D60916902099580916202DB
:1007A00090916302DC01ED91FC910190F081E02DCC
:1007B00060916A0209958091620290916302DC0166
:1007C000ED91FC910190F081E02D60916B02099513
:1007D0008091620290916302DC01ED91FC910190A5
:1007E000F081E02D60916C020995809162029091F8
:1007F0006302DC01ED91FC910190F081E02D6091AC
:100800006D02099580917802882309F45EC087E221
:1008100091E00E941C03A0906402B0906502C09019
:100820006602D0906702E0906802F0906902009141
:100830006A0210916B02D0916C02C0916D028DE240
:1008400091E00E9468038A2D0E9429030E9495016D
:100850008B2D0E9429030E9495018C2D0E94290353
:100860000E9495018D2D0E9429030E9495018E2DD5
:100870000E9429030E9495018F2D0E9429030E9446
:100880009501802F0E9429030E949501812F0E94CB
:1008900029030E9495018D2F0E9429030E94950132
:1008A0008C2F0E94290384E291E00E941C0384E2C1
:1008B00091E0DF91CF911F910F91FF90EF90DF902A
:1008C000CF90BF90AF900C941C03DF91CF911F91FC
:1008D0000F91FF90EF90DF90CF90BF90AF90089571
:1008E0001F920F920FB60F9211242F933F934F93A5
:1008F0005F936F937F938F939F93AF93BF93EF9388
:10090000FF9385EC91E00E942601FF91EF91BF914A
:10091000AF919F918F917F916F915F914F913F9197
:100920002F910F900FBE0F901F9018951F920F924E
:100930000FB60F9211242F938F939F93EF93FF93F2
:10094000E091D501F091D6018081E091DB01F09139
:10095000DC0182FD1BC090818091DE018F5F8F736F
:100960002091DF01821741F0E091DE01F0E0EB53CE
:10097000FE4F958F8093DE01FF91EF919F918F91B4
:100980002F910F900FBE0F901F9018958081F4CF7C
:100990001F920F920FB60F9211242F933F938F93B4
:1009A0009F93AF93BF938091BD019091BE01A091A1
:1009B000BF01B091C0013091B80123E0230F2D3762
:1009C00058F50196A11DB11D2093B8018093BD017A
:1009D0009093BE01A093BF01B093C0018091C1016B
:1009E0009091C201A091C301B091C4010196A11DD3
:1009F000B11D8093C1019093C201A093C301B09334
:100A0000C401BF91AF919F918F913F912F910F9012
:100A10000FBE0F901F90189526E8230F0296A11D78
:100A2000B11DD2CF1F920F920FB60F9211242F93A8
:100A30003F934F935F936F937F938F939F93AF9366
:100A4000BF93EF93FF93E091BB01F091BC0130970E
:100A500049F0A685B7858585968D91FF14C09C9138
:100A60008923A1F4FF91EF91BF91AF919F918F9155
:100A70007F916F915F914F913F912F910F900FBE9A
:100A80000F901F9018959C91892361F7A389B489D1
:100A90009C918589809589238C9386899789019774
:100AA000F1F7608D718DA685B785558538E020E01A
:100AB000CB010197F1F7822F90E095958795282F2C
:100AC0004C91452309F02068315091F7868D81FDC6
:100AD00020958091BA0190E001968F73992730910B
:100AE000B901381799F0A091BA01B0E0A858BE4FEB
:100AF0002C938093BA01828D938D0197F1F7A3898E
:100B0000B4898C919589892B8C93ACCF868D81602B
:100B1000868FF1CF1092C8011092C70188EE93E042
:100B2000A0E0B0E08093C9019093CA01A093CB01EB
:100B3000B093CC0124E031E03093C6012093C5018D
:100B400025EC30E03093D2012093D10124EC30E049
:100B50003093D4012093D30120EC30E03093D601C0
:100B60002093D50121EC30E03093D8012093D701B8
:100B700022EC30E03093DA012093D90126EC30E00A
:100B80003093DC012093DB011092DE011092DF0133
:100B90001092E0011092E10110928F0210928E02E9
:100BA0008093900290939102A0939202B09393024B
:100BB00086E191E090938D0280938C021092A302C3
:100BC0001092A2021092A5021092A4021092A70203
:100BD0001092A6021092A9021092A8026091AA0295
:100BE0006E7F6D7F6093AA026695617081E06827D1
:100BF0008BE00E940C0261E08BE00E943A02E9EB7C
:100C0000F0E0E491E0939C02E5EAF0E0E491F0E0AA
:100C1000EE0FFF1FE057FF4F8591949190939E0236
:100C200080939D0260E08AE00E943A028091AA02CD
:100C300081FD04C061E08AE00E940C028AE080939A
:100C40009802E8EBF0E0E491E0939902E4EAF0E046
:100C5000E491F0E0EE0FFF1FEA57FF4F859194916A
:100C600090939B0280939A021092790210927A02DA
:100C700010927B0210927C0210927D0210927E02F2
:100C800010927F02109280021092810210928202D2
:100C900010928302109284021092850210928B02AD
:100CA00010928A020895789484B5826084BD84B5D8
:100CB000816084BD85B5826085BD85B5816085BD57
:100CC00080916E00816080936E001092810080910F
:100CD0008100826080938100809181008160809397
:100CE0008100809180008160809380008091B100BC
:100CF00084608093B1008091B00081608093B000E7
:100D000080917A00846080937A0080917A0082607A
:100D100080937A0080917A00816080937A0080913C
:100D20007A00806880937A001092C100E091D5012A
:100D3000F091D60122E02083E091D101F091D2011F
:100D40001082E091D301F091D40180E18083109270
:100D5000DD01E091D901F091DA0196E09083E09114
:100D6000D701F091D801808180618083E091D70123
:100D7000F091D801808188608083E091D701F09163
:100D8000D801808180688083E091D701F091D801FB
:100D900080818F7D8083E091D501F091D601208301
:100DA000E091D101F091D2011082E091D301F09154
:100DB000D4018FEC80831092DD01E091D901F09194
:100DC000DA019083E091D701F091D80180818061B0
:100DD0008083E091D701F091D80180818860808381
:100DE000E091D701F091D801808180688083E09103
:100DF000D701F091D80180818F7D808360E088E009
:100E00000E943A0260E089E00E943A0261E086E0D6
:100E10000E943A021092A7021092A6021092A50216
:100E20001092A4021092A3021092A2028DE991E006
:100E30009093A9028093A80290919802963108F0AD
:100E400047C02DEB30E03093A3022093A2022BE9A0
:100E500031E03093A5022093A4022CE231E03093DC
:100E6000A7022093A6022091680084E0983048F001
:100E700031E09E3008F430E081E001C0880F3A95FF
:100E8000EAF7822B809368002DE630E0983050F02E
:100E90002BE630E09E3030F02CE630E0963110F05A
:100EA00030E020E03093A00220939F02292F30E011
:100EB000983008F0E0C081E001C0880F9A95EAF709
:100EC0008093A1028091A8029091A9020197F1F765
:100ED0008091A6029091A702892B49F1E091BB0174
:100EE000F091BC0182E0EC38F80709F1309739F055
:100EF000A389B4899C918589809589238C9380915D
:100F0000AA028E7F8093AA021092BA011092B901B0
:100F10008CE892E09093BC018093BB01E0919F022A
:100F2000F091A00280819091A102892B808384E6B8
:100F300090E0A0E0B0E08093860290938702A093B7
:100F40008802B09389021092790280938202909372
:100F50008302A0938402B09385022FB7F894809106
:100F6000BD019091BE01A091BF01B091C0012FBF02
:100F700080937E0290937F02A0938002B0938102BF
:100F80008CE892E09093630280936202D1E0D09368
:100F900078022EE7209364029FEF90936502C6E0EB
:100FA000C09366028FEE80936D0220936E02909341
:100FB0006F02C09370028093770284E391E00E94F5
:100FC0006803C093670210926802109269028EE172
:100FD00080936A020E948D000E9476038AE491E069
:100FE0000E94680383E08093670210926802109267
:100FF0006902D0936A020E948D000E94760300E08D
:1010000010E0C3E0D2E061E086E00E940C0288E0DC
:101010000E94E301892B81F483E591E00E9468033B
:10102000C09367021092680210926902C0936A022C
:101030000E948D000E94760389E00E94E301892BC3
:1010400081F484E691E00E946803C09367021092E5
:10105000680210926902D0936A020E948D000E9479
:1010600076030115110579F20E941201882359F2C5
:101070000E940000C8CF9E3040F42850310981E022
:1010800001C0880F2A95EAF71BCF2E503109F7CF00
:1010900086E191E090938D0280938C028091BB0158
:1010A0009091BC018C58924071F4E0919F02F091B4
:1010B000A00290818091A102809589238083109263
:1010C000BC011092BB01089597FB072E16F4009403
:1010D00007D077FD09D00E94780807FC05D03EF4C0
:1010E000909581959F4F0895709561957F4F0895D4
:1010F000AA1BBB1B51E107C0AA1FBB1FA617B7073E
:1011000010F0A61BB70B881F991F5A95A9F7809559
:101110009095BC01CD010895EE0FFF1F0590F4914D
:10112000E02D099410E0C2E6D0E004C0FE010E9468
:0E1130008C082196C336D107C9F7F894FFCF7B
:10113E00000000004801A800D5009A010601E40055
:10114E00F800000000008402A80019038302E002E8
:10115E00F8026B020D0A0053656E74200053746121
:10116E00636B3A0053657474696E6720766F6C75A5
:10117E006D6520746F206D61780061746976616EA3
:10118E00646F0042617469646120646574656374A0
:10119E00616461004D6F76696D656E746F20646574
:0811AE007465637461646F0055
:00000001FF
